{
  "contractName": "SimpleStorage",
  "abi": [
    {
      "inputs": [],
      "name": "read",
      "outputs": [
        {
          "internalType": "uint256",
          "name": "",
          "type": "uint256"
        }
      ],
      "stateMutability": "view",
      "type": "function",
      "constant": true
    },
    {
      "inputs": [],
      "name": "readNew",
      "outputs": [
        {
          "internalType": "uint256",
          "name": "",
          "type": "uint256"
        }
      ],
      "stateMutability": "view",
      "type": "function",
      "constant": true
    },
    {
      "inputs": [
        {
          "internalType": "uint256",
          "name": "newValue",
          "type": "uint256"
        }
      ],
      "name": "write",
      "outputs": [],
      "stateMutability": "nonpayable",
      "type": "function"
    },
    {
      "inputs": [
        {
          "internalType": "uint256",
          "name": "newValue",
          "type": "uint256"
        }
      ],
      "name": "writeNew",
      "outputs": [],
      "stateMutability": "nonpayable",
      "type": "function"
    }
  ],
  "bytecode": "0x608060405234801561001057600080fd5b506101b4806100206000396000f3fe608060405234801561001057600080fd5b506004361061004c5760003560e01c80632f048afa1461005157806357de26a41461006d578063b9479bb41461008b578063e1c68c41146100a9575b600080fd5b61006b60048036038101906100669190610127565b6100c5565b005b6100756100cf565b6040516100829190610163565b60405180910390f35b6100936100d8565b6040516100a09190610163565b60405180910390f35b6100c360048036038101906100be9190610127565b6100e2565b005b8060008190555050565b60008054905090565b6000600154905090565b8060008190555050565b600080fd5b6000819050919050565b610104816100f1565b811461010f57600080fd5b50565b600081359050610121816100fb565b92915050565b60006020828403121561013d5761013c6100ec565b5b600061014b84828501610112565b91505092915050565b61015d816100f1565b82525050565b60006020820190506101786000830184610154565b9291505056fea264697066735822122044f365856bb32e4a675ba7d48ff167b06857fefc06ba5a24c96243b5c74e75c164736f6c63430008120033",
  "immutableReferences": {},
  "source": "// SPDX-License-Identifier: MIT\npragma solidity >=0.4.22 <0.9.0;\n\ncontract SimpleStorage {\n  uint256 value;\n  uint256 valueNew;\n  function read() public view returns (uint256) {\n    return value;\n  }\n  function readNew() public view returns (uint256) {\n    return valueNew;\n  }\n\n  function write(uint256 newValue) public {\n    value = newValue;\n  }\n  function writeNew(uint256 newValue) public {\n    value = newValue;\n  }\n  \n}\n",
  "sourcePath": "/Users/ganpati_rathia/Library/CloudStorage/OneDrive-IndianInstituteofInformationTechnology,DesignandManufacturing,Kancheepuram/github/truffle/fifth/truffle/contracts/SimpleStorage.sol",
  "compiler": {
    "name": "solc",
    "version": "0.8.18+commit.87f61d96.Emscripten.clang"
  },
  "schemaVersion": "3.4.13",
  "updatedAt": "2023-05-01T15:06:07.406Z",
  "networkType": "ethereum",
  "devdoc": {
    "kind": "dev",
    "methods": {},
    "version": 1
  },
  "userdoc": {
    "kind": "user",
    "methods": {},
    "version": 1
  }
}